:020000040000FA
:02000000002FCF
:06000200000000000000F8
:08000800F000030E8301F20079
:100010000408F1000A08DB00FF1920288A150A12DB
:02002000402E70
:0E0022000000000000000000000000000000D0
:1000300000000000000000000000000000000000C0
:1000400083018C121A08F300F03073020319582848
:10005000F73073020319BF297308F839F83C031904
:10006000D829F31BC5297F1CD829FF185C28DE0A74
:100070005E08F400F40B412800307302031DC5290B
:10008000D829F40B482801307302031DC529D8294B
:10009000F40B4F285D307302031DC529D829F40BDA
:1000A000C52904307302031DC529FF14DE01D829B8
:1000B000DE017F14FF10D829DE0A5E08F400F40B7D
:1000C0006E287E307302031973287F307302031980
:1000D00076287308031DC529DE03D829FF1AFA28DC
:1000E0007F1A7828C529FF16F501D8297F16D82947
:1000F000F40B7D287308F600D829F40B85287608C0
:10010000803EF307F30FC529D829F40B8A2873081A
:10011000E200D829F40B92286208803EF307F30F1F
:10012000C529D829F40B97287308E300D829F40BC4
:10013000A7286308803EF307F30FC5296218F61756
:100140006318E2170310E20CE318E217D829F40B46
:10015000AC287308E300D829F40BC5296308803E56
:10016000F307F30FC5298B138B1BB32883160317D3
:100170008C18B828831203136308831203178C00AA
:1001800000308D00831603178C130C1555308D002D
:10019000AA308D008C148C18CB28831203136208AC
:1001A000831203178C008D0A831603178C130C150A
:1001B00055308D00AA308D008C14831603178C18CF
:1001C000DF28831203137608831203178C008D0A2D
:1001D000831603178C130C1555308D00AA308D0033
:1001E0008C14831603178C18F328831203134030E2
:1001F0008500F928F40BFF287308E200D829F40BD6
:1002000007296208803EF307F30FC529D829F40BAC
:100210000C297308E300D829F40B18296308803EE1
:10022000F307F30FC5296318E2170310E30CD8296D
:10023000F40B1D297308FE00D829F40B25297E082C
:10024000803EF307F30FC529D829F40B2A29730838
:10025000F600D829F40BC5297608803EF307F30F82
:10026000C5297618FE170310F60C7608031D4C29D5
:100270007E0803197A297E08083C03197A297E082A
:10028000093C03197A297E08633C03197A297E0800
:10029000643C03197A2953297608013C031D53292C
:1002A0007E0803197A2976083039103C031D692924
:1002B000F518622975185F290930F6066929023098
:1002C000F6066929751867290E30F6066929053082
:1002D000F606F5187329751870291B30FE067A2961
:1002E0002130FE067A29751878290730FE067A290A
:1002F0003230FE06A03084007508840784077E082B
:100300008000840A76088000F50A203075020319FF
:100310008C290430DE02D8298B138B1B8C29A0304A
:1003200084006308831203178F008312031362088B
:10033000831203178D002030F30000088C00840A1C
:1003400000088E00840A831603178C170C1555308D
:100350008D00AA308D008C14000000000C11831257
:1003600003178D0AF30B9D29831203131A081A0829
:100370008C12181218168B17FF12DE01D829FF10E5
:100380007F10831203130517C329FF107F108312F8
:1003900003130517E001DF01E00BCC29DF0BCC29AB
:1003A0000513E001DF01E00BD329DF0BD329C929B5
:0403B0000900B53B50
:0C03B4000000000000000000000000003D
:1003C000000000000000000000000000000000002D
:1003D000000000000000000000000000000000001D
:1003E000000000000000000000000000000000000D
:100E00008316031370308F008113051383120313AD
:100E10008501871A1D2F0830FF00831603138C16D7
:100E20000F309900263098008312031390309800F9
:100E300083120313C0308B001C2FF301F4018312C3
:100E400003178D018F01831603178C170C140000F4
:100E50000000831203170C08F3070318F40A0E08A6
:100E6000F4078D0F232F8F0A1C300F02031D232F31
:100E70008312031701308D00831603178C130C1493
:100E8000831203170C08F6008D0A831603170C143F
:100E9000831203170C08F5000130F5070318F60A52
:100EA0007508F3070318F60A7608F4077408031D9B
:100EB000612F7308031D612F831203138A150A1211
:100EC000002E831203130517E001DF01E00B662FEC
:100ED000DF0B662F0513E001DF01E00B6D2FDF0B49
:040EE0006D2F632FE0
:0C0EE40000000000000000000000000002
:100EF00000000000000000000000000000000000F2
:100F000000000000000000000000000000000000E1
:100F100000000000000000000000000000000000D1
:100F200000000000000000000000000000000000C1
:100F300000000000000000000000000000000000B1
:100F400000000000000000000000000000000000A1
:100F50000000000000000000000000000000000091
:100F60000000000000000000000000000000000081
:100F70000000000000000000000000000000000071
:100F80000000000000000000000000000000000061
:100F90000000000000000000000000000000000051
:100FA0000000000000000000000000000000000041
:100FB0000000000000000000000000000000000031
:100FC0000000000000000000000000000000000021
:100FD0000000000000000000000000000000000011
:100FE0000000000000000000000000000000000001
:100FF00000000000000000000000000000000000F1
:101000007F11FB012008F6000808F300A000760617
:10101000F40073097405831603172806A800F50069
:1010200070207F190800FB012008F3007606F40009
:101030007608F5003130E1001A30DA00CA210830B4
:10104000FB002108F6000608F300A1007606F40074
:1010500073097405831603172906A900F50070208B
:101060007F1908000830FB002108F3007606F40021
:101070007608F5003530E1001B30DA00CA21103067
:10108000FB002208F6000508F4000F39F300F41AFB
:1010900073160908F400F40DF40DF40DF40DF40DBD
:1010A0007408E039F3047308A20076087306F400AC
:1010B00073097405831603172A06AA00F500702029
:1010C0007F1908001030FB002208F3007606F400B8
:1010D0007608F5003930E1001C30DA00CA2108003A
:1010E000831203130830DF00F40C03187B28681BFD
:1010F0007B28F30CBF297F13F30C031C80287F1778
:101100000430E000FC010130EF0055086F050319C1
:10111000B329AC26771FBF293C307705031D9328E0
:101120008030EA00A92938307705031D9A289030CD
:10113000EA00A92934307705031DA128A030EA0070
:10114000A92930307705031DA828B030EA00A92965
:101150002C307705031DB628C030EA00F71CA929FA
:101160007908D600771849277627B1292A307705DC
:10117000031DBD28D030EA00A92928307705031DBA
:10118000C828B030EA003F0875184008D700AD29DC
:1011900024307705031DCF28E030EA00A9295C3010
:1011A0007702031DDD28F030EA007908D6007A08BE
:1011B000D7000730D4003426B3295D307702031DF1
:1011C000EB28F030EA007908D6007A08D70003301F
:1011D000D4003426B8295E307702031DF728F0309A
:1011E000EA004927D6130830D4003426B8295F30E6
:1011F0007702031D0529F030EA007908D6007A0845
:10120000D7000630D4003426B329681BB3296430D4
:101210007702031D1429FF17FA30D8008A110A1625
:1012200056258A150A12B32965307702031D212934
:10123000FF13FC30D8008A110A1656258A150A12A7
:10124000B32966307702031D2829FF1B18290B29B3
:1012500067307702031D3429F830D8008A110A1646
:1012600056258A150A12B329E201083079020318BB
:10127000E20A103079020318E20A0130FD00790811
:10128000073903194829E3000310FD0DE30B442936
:1012900068307702031D53291730620784008317D3
:1012A0007D088004B32969307702031D5E29173059
:1012B0006207840083177D098005B3296A307702AD
:1012C000031D69291A306207840083177D08800492
:1012D000B3296B307702031D74291A30620784002A
:1012E00083177D098005B3297E307702031D80298D
:1012F000FF30D8008A110A1656258A150A12B3291A
:1013000070307702031D86296425B3297130770276
:10131000031D8C297A25B32972307702031D922987
:101320009025B32973307702031D9829A525B32989
:1013300074307702031D9E29AE25B32976307702DB
:10134000031DA429B225B3297D3077020319E816BD
:10135000B3297A08D700F71857277908D6007718E5
:101360004927A12634268A150A1600208A150A1252
:101370007F1908000310EF0DFC0A7C1D852818302A
:101380007B02031CC5291830FB02F50CFB0ADF0B9E
:10139000742808000130FD007F138313FC01043022
:1013A000DF00AC26F0307705103C031DCA2A610827
:1013B000840083130008D6000330740503198B2AB8
:1013C00073090339031D8B2AD40120306102EB001D
:1013D00017277518EE29F518FB29072A00086D0252
:1013E0000319F529800A5414072A6E1C072A6C0871
:1013F00080005414072A00086C020319022A800393
:10140000D414072A6E1C072A6D088000D4140430F7
:10141000E000FC010130EF0055086F0503197E2A3A
:10142000AC260E307705031D242A5A08063E840098
:1014300083177D0880050319242A7D0980059030D3
:10144000EA00D701A12634260E307705031D412A74
:101450005A08840083177D08000503197E2A063088
:1014600084077D0880046108840083130008D60087
:101470007A08D700771857279030EA00A12634263B
:101480007E2A6108840083130A307705031D522ADF
:10149000B030EA00A1267908D600771849275727E7
:1014A00034267E2A09307705031D592AC030EA0008
:1014B0007B2A08307705031D602AD030EA007B2A9A
:1014C0001A307702031D692A54186425D4187A2526
:1014D0007E2A1C307702031D6F2AA5257E2A1D3027
:1014E0007702031D752AAE257E2A1E307702031D62
:1014F0007E2AB2257E2AA126492734268A150A1675
:1015000000208A150A127F190800FC0A0310EF0D4B
:10151000E00B0C2ACA2A681B072A0430E000FC01F1
:101520000130EF0055086F050319BE2AAC26EE30D6
:101530007705031DBE2A9030EA005A0884008317FD
:101540007D0800050319B32A063084077D080005CD
:10155000031DBE2A7D0880047A08D7007718572714
:10156000A1263426BE2A063084077D08000503190B
:10157000BE2A7D098005D701A12634268A150A16C0
:1015800000208A150A127F190800FC0A0310EF0DCB
:10159000E00B922A0310FD0D0310FD0DF30CF30C6C
:1015A000F40CF40CF50CF50CFB0AFB0AE10ADF0B5A
:0415B000D129080035
:0C15B4007F110430831203178D00831692
:1015C00003178C130C14831203170C0883120313D4
:1015D000DF00DF0A7F131930DA000130FD00E1017E
:1015E0001030FB005B237F1908000230FD00E10A88
:1015F000FB0A5B237F1908000430FD00E10AFB0AA7
:101600005B237F1908000830FD00E10AFB0A5B2319
:101610007F1908001030FD00E10AFB0A5B237F19E7
:1016200008002030FD00E10AFB0A5B237F19080057
:101630004030FD00E10AFB0A5B237F19080080307F
:10164000FD00E10AFB0A5B237F1908001830DA006D
:101650000130FD000C30E1000830FB005B237F19F6
:1016600008000230FD000A30E100FB0A5B237F190D
:1016700008000430FD000830E100FB0A5B237F19FD
:1016800008000830FD000930E100FB0A5B237F19E8
:1016900008001030FD000B30E100FB0A5B237F19CE
:1016A00008002030FD000D30E100FB0A5B237F19AC
:1016B00008007F160800FC01AC26F0307705031DFA
:1016C00008000310610DF300730D81389F005A2547
:1016D0009F149F18692B1E08F300831603131E081E
:1016E00083120313F4001F107F1A8B2BFF30E200CC
:1016F000B03061076107840083137308F500800030
:10170000840A7408F6008000F30CF40CF30CF40C5B
:101710000310F40C4B2CCD30610761078400831358
:101720000008E30084030008E2001C308402000883
:10173000F500840A0008F6005F08013C0319C02B7D
:101740005F08023C0319C02B7508033C031DB32B33
:101750007308033C031DB32B740876020318C02BD7
:101760000230DF00C02B7508031DC02B7308031D5A
:10177000C02B760874020318C02B0230DF00C02B88
:1017800084035F08E0007308E0030319DF2B000700
:10179000E0030319DF2B00070007E0030319DF2B29
:1017A0000007000700070007E0030319DF2B00070D
:1017B0000007000700070007000700070007F30005
:1017C000840A5F08E0007408E00303191D2C000779
:1017D0000318F30AE00303191D2C00070318F30A8A
:1017E00000070318F30AE00303191D2C0007031870
:1017F000F30A00070318F30A00070318F30A0007A7
:101800000318F30AE00303191D2C00070318F30A59
:1018100000070318F30A00070318F30A0007031868
:10182000F30A00070318F30A00070318F30A000776
:101830000318F30A00070318F30AF4005F08E00036
:10184000E0030319382C0310F30CF40CE003031924
:10185000382C0310F30CF40CE0030319382C03109C
:10186000F30CF40CE0030319382C0310F30CF40C04
:1018700074088000F600840373088000F500F30C00
:10188000F40CF30CF40C0310F40C741F4B2C031821
:10189000F40AF41BF4036108033EEB0017276C08FD
:1018A0007402031C5A2C74086D0203185C2C6D081A
:1018B000F4005C2C6C08F4002330610784000008FD
:1018C000D600681B8B2C740203191E2D7408031993
:1018D0008B2C7F3C03198B2C000874020318772C87
:1018E0007508E2027608E302031CE2037F2C62081B
:1018F0007502E20063087602031CE203E300E208DB
:10190000031D8B2C831603132E088312031363020B
:10191000031C1E2D8B2CCC306107610784007508D9
:101920008000840A76088000233061078400000864
:10193000E200740880000130EF0055086F050319BC
:10194000132DAC26F0307705031D132DFE307705DF
:10195000031DCC2C5A08063E840083177D08000521
:101960000319BB2C7D0980059030EA006208D6007F
:10197000D701A12634265A0884007D0800050319E2
:10198000132D063084077D0880047408D6007A0879
:10199000D70077185727112DFC307705031DD92C58
:1019A000A030EA0057277908D600771C112D492767
:1019B000112DFA307705031DE62CB030EA005727C9
:1019C0007908D600771C112D4927112DF93077059C
:1019D000031DEE2CC030EA004927112DF8307705A1
:1019E000031DF62CD030EA004927112DF73077057A
:1019F000031DFF2CE030EA005727D601112D0C30D3
:101A00007702031D052DA525132D0D307702031D2B
:101A10000B2DAE25132D0E307702031D132DB2258D
:101A2000132DA12634268A150A1600208A150A12BB
:101A30000310EF0DFC0A7C1D9D2C08000130EF0007
:101A400055086F0503194F2DAC26F0307705031D9F
:101A50004F2DFE307705031D4F2D9030EA005A08B8
:101A6000840083177D0800050319432D0630840781
:101A70007D080005031D4F2D7D0880047A08D700DE
:101A8000771857274D2D063084077D080005031968
:101A90004F2D7D098005D7014D2DA12634268A15AD
:101AA0000A1600208A150A120310EF0DFC0A7C1D8D
:101AB000202D0800000000000000000000000000D1
:061AC00000000000080018
:0A1AC60008007908EB0017276527D8
:101AD0000008E3007A08E30763086D02031C732D16
:101AE00063088000632D6E1C632D6D0A63026C0712
:101AF000E300702D7908EB00172765276C080002BA
:101B0000E3007A086302031C882D7A088002632DA3
:101B10006E1C632D6D0AE3077A0863028000632D53
:101B20007908EB0017275727652757080007E300B8
:101B30006D020318A22D6E1C632D6D0A63026C07E3
:101B40008000632D63088000632D7A08293C031C04
:101B5000632D5727652757088000632D65277A086E
:101B60008000632D65270130FD0007307A050319D9
:101B7000BE2DE2000310FD0DE20BBA2DFA19C92D9E
:101B80007A1EC62D7D0800050319C92D7D09800523
:081B9000632D7D088004632D24
:081B9800000000000000000045
:101BA0000000000000000000000000000000000035
:101BB0000000000000000000000000000000000025
:101BC0000000000000000000000000000000000015
:101BD0000000000000000000000000000000000005
:101BE00000000000000000000000000000000000F5
:101BF00000000000000000000000000000000000E5
:101C00008A110A1680258A150A123D08D500E81A9D
:101C100068178A150A1600208A150A128A150A16EC
:101C2000FF1C12238A150A128A150A1600208A152B
:101C30000A12FF1CDA228A150A1600208A150A12D7
:101C4000FF1C00208A150A1600208A150A12FF1CA4
:101C50008A150A16E0218A150A12681F052EE81255
:041C60006813052ED2
:041C64000034003414
:081C68008A110A16902C0800F5
:101C70000000000000000000000000000000000064
:101C80000B19522E8C1A8D2E0C18722E8C187B2E3E
:101C9000492E5B088A0071088400720E8300F00EE2
:101CA000700E09000B11E81F492E0310D20DD30A44
:101CB000D31D5D2ED3010130D20083162C08831270
:101CC00052050319552E5308A13E84008313831631
:101CD000FF308600831200088800520983168600B0
:101CE0008312492E831603130C10831203130C1056
:101CF00040308500492E8C108316AD0B8B2E08309A
:101D0000AD008312DD01681C8B2E0C1E852EFE306B
:101D100099000000492E8312492E08306702031DE6
:101D2000922E9D2E8317283066078400E60A07301E
:101D3000E605E70A1A088000492E85019D2E1A083B
:021D4000492E2A
:0E1D4200F8080319A82E78030F39EA040800E8
:101D500007090F39EA040800831203177C08033CC3
:101D60000319C82E7C08023C0319C32E7C08013CD1
:101D70000319BE2E1C308F008D01CC2E1C308F001D
:101D8000C0308D00CC2E1D308F0080308D00CC2EC9
:101D90001E308F0040308D007B088D0703188F0A9E
:101DA0007B088D0703188F0A7B088D0703188F0A9D
:101DB0007B088D0703188F0A7F1FE22E60308D0786
:101DC00003188F0A831603178C170C1400000000E9
:101DD000831203170C08F700F713831203178D0AF9
:101DE000831603170C1400000000831203170C085D
:101DF000F800F813831203178D0A831603170C14C7
:101E000000000000831203170C08F900F913831275
:101E100003178D0A831603170C14000000008312A9
:101E200003170C08FA00FA138312031308006B0857
:101E30002A3C031D1D2F4908EB006B08293C031C9D
:101E4000080011306B02031C312F0A3E03178D006E
:101E500083168C130C14831201308C1F030103139F
:101E6000EE0003306B02031C0800233E03178D00B5
:101E700083168C130C1483120C080313EC00031745
:101E800027308D0783160C1483120C080313ED0002
:101E9000080079082A3C031D4F2F4908502F790864
:101EA000203E840083130008D600D61308007A0869
:101EB0002A3C031D5D2F49085E2F7A08203E8400CE
:101EC00083130008D700D713080079082A3C031DA4
:101ED0006B2F49086C2F79088400293C0318722F56
:101EE0002A30840020308407831308007A082A3CB3
:101EF000031D7C2F49087D2F7A08203E8400831320
:081F00000008D607D613080003
:081F08000000000000000000D1
:101F100000000000000000000000000000000000C1
:101F200000000000000000000000000000000000B1
:101F300000000000000000000000000000000000A1
:101F40000000000000000000000000000000000091
:101F50000000000000000000000000000000000081
:101F60000000000000000000000000000000000071
:101F70000000000000000000000000000000000061
:101F80000000000000000000000000000000000051
:101F90000000000000000000000000000000000041
:101FA0000000000000000000000000000000000031
:101FB0000000000000000000000000000000000021
:101FC0000000000000000000000000000000000011
:101FD0000F308A0008307B020318F02F23300800EE
:101FE0002F342D342B342C342E34303423342334FA
:101FF00023342434253426342734283429342A340D
:102000005C08F03C031D442CFF1C442CDC017F10B9
:102010008B138B1B0828590803193628D903031979
:10202000CC2AD9030319442CD9030319442CD9030E
:1020300003195C2BD9030319402AD9030319492A30
:10204000D9030319692AD90303196F2AD90303197C
:10205000782AD9030319812AD90303198A2AD903B3
:102060000319932AD90303199C2A442CDD01E201A8
:10207000E3018316031330080319442CF400013CD8
:10208000031976283008043C0319E7283008053C7A
:10209000031985293008073C031993293008083CA7
:1020A0000319C0293008093C0319CE2930080A3C1D
:1020B0000319DC2930080B3C0319EA2930080C3CD1
:1020C0000319F82930080D3C0319062A30087D3C15
:1020D0000319142A30087F3C03196F28442C8312FB
:1020E0000313FF30E200FF30E3008128831603135F
:1020F0003108033C031C442C310883120313FC00F9
:102100009928631C872863100030FC009928E31C81
:102110008D28E3100130FC009928631D932863117A
:102120000230FC009928E31DE428E3110330FC0091
:10213000992849240130D8008A110A1656257C08AE
:10214000D8008A110A1656251830E000FB017F13CB
:102150008A150A12AC267B08D8008A110A16562561
:102160000030D80056257708D80056257808D800C2
:1021700056257908D80056257A08D80056257F17A5
:102180008A150A12AC267B08D8008A110A16562531
:102190000130D80056257708D80056257808D80091
:1021A00056257908D80056257A08D80056258A1170
:1021B0000A16FB0AE00BA728F730D8008A110A1686
:1021C00056258A110A168728621D822962118312F8
:1021D000031349240430D8008A110A1656258A119F
:1021E0000A160E30DF000330FB0083120317233082
:1021F0008D00831203137B08D8008A110A16562516
:102200000030D8005625831603178C130C14831244
:1022100003170C0883120313D800D8135625831212
:10222000031727308D07831603170C148312031727
:102230000C0883120313D800D813562583120317F2
:1022400026308D02831203130030D80056258A11E0
:102250000A16FB0ADF0BFB281930DF000A30F300F7
:102260003130F4007B08D8008A110A1656258312F3
:10227000031773088D00831603170C1483120317BA
:102280000C08831203137F39D800562583120317D5
:1022900074088D00831603170C148312031727305C
:1022A0008D070C0883120313D800D8135625831604
:1022B00003170C14831203170C0883120313D8009E
:1022C000D81356258312031773088D00831603173E
:1022D0000C14831203170C0883120313F600D801A1
:1022E000F61B581456258A110A16FB0AF30AF40A3B
:1022F000DF0B3229F730D8008A110A1656258A11C9
:102300000A168229E21D9029E2110530F30080307F
:10231000831203178D00831203138030E000202AFC
:10232000621EBD2962128312031349240730D800AC
:102330008A110A1656258030E000831203178D019A
:102340001F308F00831603178C170C140000000039
:10235000831203170C088D0A83120313D8008A1105
:102360000A1656258A110A16E00BA229F730D80062
:102370008A110A1656258A110A16E21ECB29E21284
:102380000830F3000330831203178D008312031308
:102390000330E000202A621FD92962130930F300BC
:1023A0000930831203178D00831203130130E000FC
:1023B000202A631EE72963120A30F3007F3083125C
:1023C00003178D00831203130130E000202AE31E5F
:1023D000F529E3120B30F3007E30831203178D00D2
:1023E000831203130130E000202A631F032A6313C2
:1023F0000C30F3007C30831203178D00831203131B
:102400000230E000202AE31F112AE3130D30F3000D
:102410007B30831203178D00831203130130E00019
:10242000202AE21F1F2AE2137D30F30000308312BE
:1024300003178D00831203130130E000202A3D2C86
:1024400049247308D8008A110A16562583160317E3
:102450008C130C14831203170C088D0A83120313B8
:10246000D8008A110A1656258A110A16E00B262A68
:10247000F730D8008A110A1656258A110A168229C1
:102480008312031780308D00831203138030E00025
:10249000A52A8312031780308D008C018312031349
:1024A0008030E000831603178C130C1555308D0017
:1024B000AA308D008C14831203130D1E5D2A0D1299
:1024C000831203178D0A8C0A83120313E00B522A1E
:1024D000CC2B831203171F308F008D01502B8312DA
:1024E000031703308D00831203130330E000A52A85
:1024F0008312031709308D00831203130130E000AB
:10250000A52A831203177F308D0083120313013035
:10251000E000A52A831203177E308D008312031377
:102520000130E000A52A831203177C308D0083124E
:1025300003130230E000A52A831203177B308D00BD
:10254000831203130130E000A52AF301B0308400A8
:1025500083138312031700088C008C138316031750
:102560008C130C1555308D00AA308D008C148312FD
:1025700003130D1EB92A0D12831203178D0A840A44
:1025800083120313F30A731FC92AF3013030840046
:102590008317E00BA92ACC2B831203171008831290
:1025A0000313FC001830DF00FB017F13E923FB0A53
:1025B000DF0BD62A1830DF00FB017F17E923FB0A67
:1025C000DF0BDE2A83120317900303193C2B9003C1
:1025D0000319432B900303194A2B8312031308306A
:1025E000DF00FB01B0307B077B077B077B078400A4
:1025F0008313001B042BD12350307B077B077B0701
:102600007B0784008317DD23FB0ADF0BF22A0830E7
:10261000DF00FB01D0307B077B077B077B07840053
:102620008313001B1C2BD123B0307B077B077B0758
:102630007B0784008317DD23FB0ADF0B0A2B08309E
:10264000DF00FB01831730307B077B077B077B07AD
:102650008400001B332BD123D0307B077B077B0703
:102660007B078400DD23FB0ADF0B232B8312031778
:102670001C308F008D01502B831203171C308F00EC
:10268000C0308D00502B831203171D308F00803017
:102690008D00502B831203171E308F0040308D00A9
:1026A000B030840083132224303084008317222426
:1026B000B03084002224CC2B0330DF000F305F05C4
:1026C000F3008317B030DF1A6A2B30305F1A6A2BA1
:1026D0008313B03073077307730773078400801B7D
:1026E000C62B5F08103C031C772B840A952B00082F
:1026F000F400033084070018F41711305F020A3E1B
:10270000831203178D0074088C00831603178C1333
:102710000C1555308D00AA308D008C1483120313D4
:102720000D1E902B0D12023084020008F4000330BD
:102730005F02233E831203178D0074088C008316FA
:1027400003178C130C1555308D00AA308D008C1496
:10275000831203130D1EAA2B0D12840A0008F40025
:1027600003305F024A3E831203178D0074088C0009
:10277000831603178C130C1555308D00AA308D006D
:102780008C14831203130D1EC32B0D12DF0A5F0876
:10279000293C03185E2BCC2B8312031701308500D4
:1027A000D02B0008F300840A0008F400840A000813
:1027B000F500840A0008F600080073088000840A07
:1027C00074088000840A75088000840A76088000F6
:1027D00008007F1BF02B7B080F3C0318062CFA2BFC
:1027E0007B08073C0318002C831708307B02F60097
:1027F000B0300A2C831710307B02F60030300A2CE0
:10280000831708307B07F60030300A2C83137B08CF
:10281000F600B03076077607760776078400801FCB
:1028200008008A150A12AC268A110A167708800059
:10283000840A78088000840A79088000840A7A086B
:10284000800008004030F6008E0100088C008C13D8
:10285000831603178C170C1555308D00AA308D0088
:102860008C14000000000C11831203178D0A031949
:102870008F0A840AF60B252C0800831203131A080A
:102880001A088C1218121816831203138A150A16C6
:10289000ED28F030D8008A110A1656250030D800ED
:1028A00056250130D80056255D30D8005625043015
:0A28B000D80056258A110A16080008
:0628BA0000000000000018
:1028C0000000000000000000000000000000000008
:1028D00000000000000000000000000000000000F8
:1028E00000000000000000000000000000000000E8
:1028F00000000000000000000000000000000000D8
:1029000000000000000000000000000000000000C7
:1029100000000000000000000000000000000000B7
:1029200056087F39D60057087F39D700F0306A0241
:102930000319E92C5D086A020319A22C6A08DD005C
:10294000D80056256A08F039903C0319C12C6A0852
:10295000F039803C0319C12C6A08F039A03C0319F6
:10296000C12C6A08F039B03C0319BE2C6A08F03952
:10297000C03C031DD82CE81DD82CCD2C681DD82CAC
:10298000CD2C681ECB2C6908840083130008D60761
:102990004030D602D613E81CD82C5608803E0317C8
:1029A0008D0083168C130C1483120C080313D600AD
:1029B0005608D80056256A08F039C03C0319142D72
:1029C0006A08F039D03C0319142D5708D800562551
:1029D000142DDD01D41DF02C5608D8005625532D9A
:1029E000541CF52C6A08D8005625560803178D008C
:1029F0001F308F000313570803190F2DE000031732
:102A000083168C170C140000000083120C080313AB
:102A1000D800562503178D0A0313E00BFF2C541D15
:102A2000532DF730D80056256A08F039903C031D25
:102A30001E2D5608C1005708C2002F2D6A08F03914
:102A4000B03C031D282D5608C3005708C4002F2D85
:102A50006A08F039C03C031D2F2D5608C5008A15A1
:102A60000A1600208A110A164F080319532DD000A8
:102A7000FF30D10000000000000000000000000056
:102A80000000000000000000000000000000000046
:102A9000000000008A150A1600208A110A16D10BC0
:102AA0003A2DD00B382D8A150A12372E083083168E
:102AB000AD00831200000C1E5B2D58089900000029
:102AC00083160C1083128F018E010C108501831662
:062AD0000C148312080043
:0A2AD60000000000000000000000F6
:102AE00000000000000000000000000000000000E6
:102AF00000000000000000000000000000000000D6
:102B00000030FF00E8008316023081008312053098
:102B100090007B30920085010030860000308700F5
:102B2000003088000830890083162F308500FF3080
:102B30008600FF308700FF308800FF308900831255
:102B4000FC011030FB000830E000FE30FD003527AE
:102B50000314FD0DFB0AE00BA72D0830FB00EF303E
:102B6000FD004527FB0AFB30FD004527FB0AFE3030
:102B7000FD004527FB0AFD30FD004527FB0AF73025
:102B8000FD004527FB0ADF30FD0045278316803016
:102B90009F000530831203178D0083168C130C14CD
:102BA00083120C080319D92D831603139F161F16C1
:102BB000FF167F30831203178D0083160C148312C7
:102BC0000C0803130739F3000310730DE8047E307B
:102BD00003178D0083160C1483120C080313F300E3
:102BE000731BF62D7308203EE90068161130E000D3
:102BF000831320308400FF308000840AE00BFC2D1A
:102C00001830E0008317B0308400FF308000840A61
:102C1000E00B062EFB017F131930E00083133130E7
:102C200084000A30F300031773088D0083168C1399
:102C30000C1483128C130C0880000313FB0AFB0A8C
:102C4000840AF30AE00B132E033003178D0083165A
:102C50008C130C1483120C0883160313AE0083121A
:102C60001830E000831790308400FF308000840A21
:102C7000E00B362EFB010830E0000130FD0008308B
:102C8000840083135527FB0A0310FD0DE00B422E31
:102C90000830E0000130FD00063084008313552722
:102CA000FB0A0310FD0DE00B4F2E0430E000013055
:102CB000FD000530840083135527FB0A0310FD0D2A
:102CC000E00B5C2EFD0D5527FB0A0130FD0009309D
:102CD00084005527FB0A0310FD0D5527FB0A03103E
:102CE000FD0D55277B3003178D0083168C130C14B4
:102CF00083120C080313CF007C3003178D0083165A
:102D00008C130C1483120C098D0AF30083160C1417
:102D100083120C09831603130F39F400730EF03974
:102D20007404950083160317FF30A800A900AA00B9
:102D3000831297019D0198019E0199019F019A01BB
:102D4000A0019B01A1019C01A2010313E501E60181
:102D5000E701DC01DE01DD01D901D3010130D20040
:102D60008316AC010F30A9008030AA00AB0183129A
:102D7000FB010830E0000130FD008A150A12AC2684
:102D80008A110A1677082B3C031DCB2E83167D086B
:102D9000AB04880683120310FD0DFB0AE00BBD2E69
:102DA000F3010830E0000130FD008A150A12AC265C
:102DB0008A110A1677082A3C031DED2E83167D0919
:102DC00095057D08AC048312F91CEA2E7D0879185C
:102DD000F304ED2E7D08791CF3040310FD0DFB0AAE
:102DE000E00BD52E7308860083162C088312031D72
:102DF000E817FF30DF00FF30E000000000000000B7
:102E000000000000000000000000000000000000C2
:102E100000000000000000000000000000000000B2
:102E20000000E00BFD2EDF0BFB2E40308500C03094
:102E30008B0083168C160F30990026309800831271
:102E40009030980083160830AD008C148312121550
:102E5000093003178D0083168C130C1483120C0891
:102E60000313031D68148B1608008A150A12AC267A
:102E70008A110A16F0307705031908007D088316B9
:102E8000031788058312031308008A150A12AC265B
:102E90008A110A16F0307705031908007D08831699
:102EA000031789058312031308008A150A12AC263A
:102EB0008A110A162C307702031C080077083F3C61
:102EC000031C08000330F7050330770203190800DC
:0A2ED0005A0884007D088004080001
:062EDA00000000000000F2
:102EE00000000000000000000000000000000000E2
:102EF00000000000000000000000000000000000D2
:102F000000000000000000000000000000000000C1
:102F100000000000000000000000000000000000B1
:102F200000000000000000000000000000000000A1
:102F30000000000000000000000000000000000091
:102F40000000000000000000000000000000000081
:102F50000000000000000000000000000000000071
:102F60000000000000000000000000000000000061
:102F70000000000000000000000000000000000051
:102F80000000000000000000000000000000000041
:102F90000000000000000000000000000000000031
:102FA0000000000000000000000000000000000021
:102FB0000000000000000000000000000000000011
:102FC0000000000000000000000000000000000001
:102FD00000000000000000000000000000000000F1
:102FE00000000000000000000000000000000000E1
:102FF00000000000000000000000000000000000D1
:103000006708031908002830650784008317000843
:10301000E400E50A0730E505E41F2B295D0864029A
:10302000031D17287F14DE016408DC006029640892
:10303000F039F03C031D49286408FF3C0319582966
:103040006408FE3C031960296408FD3C03195829F3
:103050006408FC3C03194F286408FB3C03194F2803
:103060006408FA3C03194F286408F93C03195829ED
:103070006408F83C03194F286408F03C03195028F1
:103080006408F73C03194628DC0160298A110A16F6
:1030900000286408DC00DD007F14DE01582958296F
:1030A0006408DC00D9017F14FF10DE016029FF1CD9
:1030B000F328043059020319BC28590BE6285E088E
:1030C000031980285E08013C03198C285E08023C25
:1030D000031998285E08033C0319A4285E08043CE1
:1030E0000319AC285E08053C0319B4286408831250
:1030F00003179600831203138B210130DE00602931
:103100006408033C031CED28640883120317900035
:1031100083120313DE0A60296408173C031CED28A0
:10312000640883120317910083120313DE0A6029D7
:103130006408013C031CED28640883120317920005
:1031400083120313DE0A60296408831203179300B5
:1031500083120313DE0A60296408831203179400A4
:1031600083120313DE0A6029640883120317950093
:1031700083120313DE0A60295E080319D5285E084E
:10318000013C0319A4285E08023C0319AC285E0820
:10319000033C0319B42864088312031796009001B6
:1031A000831203138B21DE01602903306402031CA8
:1031B000ED286408293C031CED28640883120317DA
:1031C0009100920183120313DE0A6029DE1BED28B1
:1031D0005E08FE006821DE0A60298B17DC01D90138
:1031E0007F10FF1060295E08031DFC28E408031906
:1031F0002929DC017F106029FE00FE0B0629013021
:10320000640203192929DC017F106029FE0B0F29B4
:103210005D30640203192929DC017F106029FE0B4F
:1032200018290430640203192929DC017F10602960
:10323000FE0B2629FF147F15DE01BB217F126408D7
:10324000D90059087F3C031CED286029DC017F1060
:103250006029DE0A6029DC0803196029F0305C026D
:1032600003195728DE08031D3F295C085D02031976
:103270003F295C08DD00D8008A110A16562564082B
:10328000D8008A110A1656258A150A16DE0ADE1893
:1032900055295C08F039FE00C03C031955297E0809
:1032A000D03C031955297F1460297F10DE01602965
:1032B0006408D8008A110A1656258A150A1660294C
:1032C000E70B03287F1C08006708031D03286229F9
:1032D0007E083F3C031884297E087F3C03187C2924
:1032E0007E08BF3C031C080080307E02B03E840094
:1032F000831764088000080040307E02303E84005E
:1033000083176408800008007E08B03E84008313A1
:103310006408800008008312031718301218910700
:1033200011080F3C0318A42911081F3C03189E29FB
:1033300020301102FE008317B030A829103011028E
:10334000FE0083173030A8291108FE008313B03027
:103350007E077E077E077E07840013088000840AAC
:1033600014088000840A15088000840A160880006A
:10337000831203130800B030840083134030FE0032
:10338000FF308000840AFE0BC1293030840083178F
:103390004030FE00FF308000840AFE0BCB29B030A5
:1033A00084004030FE00FF308000840AFE0BD429E8
:0233B000080013
:0E33B20000000000000000000000000000000D
:1033C0007F117F13831603132B0883120313031D2E
:1033D000F829FB010830DF000130FD008830DA00F9
:1033E00033227F1908000310FD0DFB0ADF0BF029C3
:1033F0000830DF00FB000130FD008630DA003322A8
:103400007F1908000310FD0DFB0ADF0BFF290330B5
:10341000DF000130FD008530DA0012307B02031D31
:10342000132AFF1A162A33227F1908000310FD0DF4
:10343000FB0ADF0B0D2AFB0A2030FD008530DA0085
:1034400033227F190800FB0A0330DF000130FD0042
:103450008930DA0033227F1908000310FD0DFB0AC2
:10346000DF0B2A2A0800FC010130CB008A150A1262
:10347000AC268A150A162C307702031CE12A77083D
:103480003F3C031CE12A83135A0884007D09800510
:1034900077184F2AF718542A0808F3005F2A0608FD
:1034A000F7180609F3005F2A0508F4000F39F30046
:1034B000F41A7316090EF400740DE039F3047D0854
:1034C00080041B308A007A08EE23F3047308CC00D2
:1034D0008317B0307B07840000087306CD007308A3
:1034E000800090307B07840073094D05800600083A
:1034F000CE004B0855050319CE2A4C08F4004D08A0
:10350000F5004E08F6007708333C031C8D2A9030F6
:10351000EA003E08E200E3019A2A77083B3C031CDC
:10352000982AB030EA003F08E2004008E3009A2AF7
:10353000C030EA008A150A12A1268A150A167908EF
:10354000EF000830E0007518A72A681FC12A771D10
:10355000B52A741CB22A77093C390319C12A6308B9
:10356000D700BC2A6208D700BC2A681BB92A741885
:10357000C12A761CB22AAB2A6F08D6008A150A1215
:1035800034268A150A1600208A150A167F190800A3
:10359000F40CF50CF60CEF0AE00BA32AFC0A7C19DC
:1035A000E12A0310CB0D8A150A12AC268A150A16D9
:1035B0002C307702031CCE2A77083F3C031CCE2A0E
:0E35C000792A8A150A1600208A150A160800B4
:0235CE000000FB
:1035D00000000000000000000000000000000000EB
:1035E00000000000000000000000000000000000DB
:1035F00000000000000000000000000000000000CB
:103600000F3982073F3406345B344F3466346D34EF
:103610007D3407347F346F3477347C3439345E340E
:1036200079347134831603132C088312F4000130AB
:10363000FD000830FB0083137D0874050319C42BBB
:103640000330FC000830CB008A150A12AC268A151C
:103650000A167C080319382B4B0855050319342B1F
:1036600077082A3C0319382B0310CB0CFC03242BBE
:103670007A082A3C031D3E2B49083F2B7A08203E3E
:1036800084000008F300F5001B308A00E201F31B00
:10369000621479087C39F6000319BD2B10307602CC
:1036A000031C7D2B14307602031CB52B20307602D0
:1036B000031C9F2B24307602031C672B30307602CC
:1036C000031C7A2B38307602031C702BBD2B07307D
:1036D000F305F30AF5010314F50DF30B6C2BBD2B69
:1036E000F3137308791D730E0F390023F500621868
:1036F000F517BD2BF313F30A7E2BF313F50164309A
:10370000F302031C892BF50AF302031C892BF50A2B
:103710008B2B6430F307F91D992BF5010A30F30266
:10372000031C942BF50A8F2B791D992B73080A3EE5
:10373000F50075080023F5006218F517BD2BF3138B
:10374000F91DAE2B731FA72B4030F3028D2BF3090D
:10375000730A3F39F300031973178D2B4030731B25
:103760000030F5006218F517BD2B0130F500103060
:10377000F302031CBD2BF50DB82B99307B07840099
:103780007508F91C750980008A150A1600208A152B
:0E3790000A160310FD0DFB0A7B1E1C2B080001
:02379E00000029
:1037A0000000000000000000000000000000000019
:1037B0000000000000000000000000000000000009
:1037C00000000000000000000000000000000000F9
:0C37D000000000000000000000000000ED
:0437DC000F39820718
:1037E00000340134033407340F341F343F347F3442
:1037F0008034C034E034F034F834FC34FE34003427
:10380000440000003C007F00440000003D007F00B9
:10381000440000003E007F00440000003F007F00A5
:103820004400000040007F004400000041007F0091
:103830004400000042007F004400000043007F007D
:103840004400000044007F004400000045007F0069
:103850004400000046007F004400000047007F0055
:103860004400000048007F004400000049007F0041
:10387000440000004A007F00440000004B007F002D
:10388000440000004C007F00440000004D007F0019
:10389000440000004E007F00440000004F007F0005
:1038A0004400000050007F004400000051007F00F1
:1038B0004400000052007F004400000053007F00DD
:1038C000440000003C000000440000003D000000F7
:1038D000440000003E000000440000003F000000E3
:1038E00044000000400000004400000041000000CF
:1038F00044000000420000004400000043000000BB
:1039000044000000440000004400000045000000A6
:103910004400000046000000440000004700000092
:10392000440000004800000044000000490000007E
:10393000440000004A000000440000004B0000006A
:10394000440000004C000000440000004D00000056
:10395000440000004E000000440000004F00000042
:10396000440000005000000044000000510000002E
:10397000440000005200000044000000530000001A
:103980007F000000000000007F0000000000000039
:103990007F000000000000007F0000000000000029
:1039A0007F000000000000007F0000000000000019
:1039B0007F000000000000007F0000000000000009
:1039C0007F000000000000007F00000000000000F9
:1039D0007F000000000000007F00000000000000E9
:1039E0007F000000000000007F00000000000000D9
:1039F0007F000000000000007F00000000000000C9
:103A00007F000000000000007F00000000000000B8
:103A10007F000000000000007F00000000000000A8
:103A20007F000000000000007F0000000000000098
:103A30007F000000000000007F0000000000000088
:103A40007F000000000000007F0000000000000078
:103A50007F000000000000007F0000000000000068
:103A60007F000000000000007F0000000000000058
:103A70007F000000000000007F0000000000000048
:103A80007F000000000000007F0000000000000038
:103A90007F000000000000007F0000000000000028
:103AA0007F000000000000007F0000000000000018
:103AB0007F000000000000007F0000000000000008
:103AC0007F000000000000007F00000000000000F8
:103AD0007F000000000000007F00000000000000E8
:103AE0007F000000000000007F00000000000000D8
:103AF0007F000000000000007F00000000000000C8
:103B00007F000000000000007F00000000000000B7
:103B10007F000000000000007F00000000000000A7
:103B20007F000000000000007F0000000000000097
:103B30007F000000000000007F0000000000000087
:103B40007F000000000000007F0000000000000077
:103B50007F000000000000007F0000000000000067
:103B60007F000000000000007F0000000000000057
:103B70007F000000000000007F0000000000000047
:103B80007F000000000000007F0000000000000037
:103B90007F000000000000007F0000000000000027
:103BA0007F000000000000007F0000000000000017
:103BB0007F000000000000007F0000000000000007
:103BC0007F000000000000007F00000000000000F7
:103BD0007F000000000000007F00000000000000E7
:103BE0007F000000000000007F00000000000000D7
:103BF0007F000000000000007F00000000000000C7
:103C00007F000000000000007F00000000000000B6
:103C10007F000000000000007F00000000000000A6
:103C20007F000000000000007F0000000000000096
:103C30007F000000000000007F0000000000000086
:103C40007F000000000000007F0000000000000076
:103C50007F000000000000007F0000000000000066
:103C60007F000000000000007F0000000000000056
:103C70007F000000000000007F0000000000000046
:103C80007F000000000000007F0000000000000036
:103C90007F000000000000007F0000000000000026
:103CA0007F000000000000007F0000000000000016
:103CB0007F000000000000007F0000000000000006
:103CC0007F000000000000007F00000000000000F6
:103CD0007F000000000000007F00000000000000E6
:103CE0007F000000000000007F00000000000000D6
:103CF0007F000000000000007F00000000000000C6
:103D00007F000000000000007F00000000000000B5
:103D10007F000000000000007F00000000000000A5
:103D20007F000000000000007F0000000000000095
:103D30007F000000000000007F0000000000000085
:103D40007F000000000000007F0000000000000075
:103D50007F000000000000007F0000000000000065
:103D60007F000000000000007F0000000000000055
:103D70007F000000000000007F0000000000000045
:103D80007F000000000000007F0000000000000035
:103D90007F000000000000007F0000000000000025
:103DA0007F000000000000007F0000000000000015
:103DB0007F000000000000007F0000000000000005
:103DC0007F000000000000007F00000000000000F5
:103DD0007F000000000000007F00000000000000E5
:103DE0007F000000000000007F00000000000000D5
:103DF0007F000000000000007F00000000000000C5
:103E00000000010002000300040005000600070096
:103E1000080009000A000B000C000D000E000F0046
:103E200010001100120013001400150016001700F6
:103E3000180019001A001B001C001D001E001F00A6
:103E40002000210022002300240025002600270056
:103E5000280029002A002B002C002D002E002F0006
:103E600030003100320033003400350036003700B6
:103E7000380039003A003B003C003D003E003F0066
:103E80004000410042004300440045004600470016
:103E9000480049004A004B004C004D004E004F00C6
:103EA0005000510052005300540055005600570076
:103EB000580059005A005B005C005D005E005F0026
:103EC00060006100620063006400650066006700D6
:103ED000680069006A006B006C006D006E006F0086
:103EE0007000710072007300740075007600770036
:103EF000780079007A007B007C007D007E007F00E6
:103F000000000000000000000000000000000000B1
:103F100000000000000000000000000000000000A1
:103F20000000000000000000000000000000000091
:103F30000000000000000000000000000000000081
:103F40000000000000000000000000000000000071
:103F50000000000000000000000000000000000061
:103F60000000000000000000000000000000000051
:103F70000000000000000000000000000000000041
:103F80000000000000000000000000000000000031
:103F90000000000000000000000000000000000021
:103FA0000000000000000000000000000000000011
:103FB0000000000000000000000000000000000001
:103FC00000000000000000000000000000000000F1
:103FD00000000000000000000000000000000000E1
:103FE00000000000000000000000000000000000D1
:103FF00000000000000000000000000000000000C1
:02400E00242369
:02401000FF02AD
:1042000003006D008F0006000400000000000000A5
:10421000000000000000000000000000000000009E
:104220000000000000000000000000000F0000007F
:10423000000000000000000000000000000000007E
:10424000000000000000000000000000000000006E
:10425000000000000000000000000000000000005E
:10426000000000000000000000000000000000004E
:10427000000000000000000000000000000000003E
:10428000000000000000000000000000000000002E
:10429000000000007F007F007F007F007F007F0024
:1042A0007F007F007F007F007F007F007F007F0016
:1042B0007F007F007F007F007F007F007F007F0006
:1042C0007F007F007F007F000F007F007F007F0066
:1042D0007F007F007F007F007F007F007F007F00E6
:1042E00028000000000000000000000000000000A6
:1042F0000000000000000000000000007F0000003F
:104300000000010002000300040005000600070091
:10431000080009000A000B000C000D000E000F0041
:1043200010001100120013001400150016001700F1
:10433000180019001A001B001C001D001E001F00A1
:104340002000210022002300240025002600270051
:10435000280029002A002B002C002D002E002F0001
:1043600030003100320033003400350036003700B1
:10437000380039003A003B003C003D003E003F0061
:104380004000410042004300440045004600470011
:10439000480049004A004B004C004D004E004F00C1
:1043A0005000510052005300540055005600570071
:1043B000580059005A005B005C005D005E005F0021
:1043C00060006100620063006400650066006700D1
:1043D000680069006A006B006C006D006E006F0081
:1043E0007000710072007300740075007600770031
:1043F000780079007A007B007C007D007E007F00E1
:00000001FF
