:020000040000FA
:02000000002FCF
:06000200000000000000F8
:08000800F000030E8301F20079
:100010000408F1000A08DB00FF1920288A150A12DB
:02002000402E70
:0E0022000000000000000000000000000000D0
:1000300000000000000000000000000000000000C0
:1000400083018C121A08F300F03073020319582848
:10005000F73073020319BF297308F839F83C031904
:10006000D829F31BC5297F1CD829FF185C28DE0A74
:100070005E08F400F40B412800307302031DC5290B
:10008000D829F40B482801307302031DC529D8294B
:10009000F40B4F285D307302031DC529D829F40BDA
:1000A000C52904307302031DC529FF14DE01D829B8
:1000B000DE017F14FF10D829DE0A5E08F400F40B7D
:1000C0006E287E307302031973287F307302031980
:1000D00076287308031DC529DE03D829FF1AFA28DC
:1000E0007F1A7828C529FF16F501D8297F16D82947
:1000F000F40B7D287308F600D829F40B85287608C0
:10010000803EF307F30FC529D829F40B8A2873081A
:10011000E200D829F40B92286208803EF307F30F1F
:10012000C529D829F40B97287308E300D829F40BC4
:10013000A7286308803EF307F30FC5296218F61756
:100140006318E2170310E20CE318E217D829F40B46
:10015000AC287308E300D829F40BC5296308803E56
:10016000F307F30FC5298B138B1BB32883160317D3
:100170008C18B828831203136308831203178C00AA
:1001800000308D00831603178C130C1555308D002D
:10019000AA308D008C148C18CB28831203136208AC
:1001A000831203178C008D0A831603178C130C150A
:1001B00055308D00AA308D008C14831603178C18CF
:1001C000DF28831203137608831203178C008D0A2D
:1001D000831603178C130C1555308D00AA308D0033
:1001E0008C14831603178C18F328831203134030E2
:1001F0008500F928F40BFF287308E200D829F40BD6
:1002000007296208803EF307F30FC529D829F40BAC
:100210000C297308E300D829F40B18296308803EE1
:10022000F307F30FC5296318E2170310E30CD8296D
:10023000F40B1D297308FE00D829F40B25297E082C
:10024000803EF307F30FC529D829F40B2A29730838
:10025000F600D829F40BC5297608803EF307F30F82
:10026000C5297618FE170310F60C7608031D4C29D5
:100270007E0803197A297E08083C03197A297E082A
:10028000093C03197A297E08633C03197A297E0800
:10029000643C03197A2953297608013C031D53292C
:1002A0007E0803197A2976083039103C031D692924
:1002B000F518622975185F290930F6066929023098
:1002C000F6066929751867290E30F6066929053082
:1002D000F606F5187329751870291B30FE067A2961
:1002E0002130FE067A29751878290730FE067A290A
:1002F0003230FE06A03084007508840784077E082B
:100300008000840A76088000F50A203075020319FF
:100310008C290430DE02D8298B138B1B8C29A0304A
:1003200084006308831203178F008312031362088B
:10033000831203178D002030F30000088C00840A1C
:1003400000088E00840A831603178C170C1555308D
:100350008D00AA308D008C14000000000C11831257
:1003600003178D0AF30B9D29831203131A081A0829
:100370008C12181218168B17FF12DE01D829FF10E5
:100380007F10831203130517C329FF107F108312F8
:1003900003130517E001DF01E00BCC29DF0BCC29AB
:1003A0000513E001DF01E00BD329DF0BD329C929B5
:0403B0000900B53B50
:0C03B4000000000000000000000000003D
:1003C000000000000000000000000000000000002D
:1003D000000000000000000000000000000000001D
:1003E000000000000000000000000000000000000D
:100E00008316031370308F008113051383120313AD
:100E10008501871A1D2F0830FF00831603138C16D7
:100E20000F309900263098008312031390309800F9
:100E300083120313C0308B001C2FF301F4018312C3
:100E400003178D018F01831603178C170C140000F4
:100E50000000831203170C08F3070318F40A0E08A6
:100E6000F4078D0F232F8F0A1C300F02031D232F31
:100E70008312031701308D00831603178C130C1493
:100E8000831203170C08F6008D0A831603170C143F
:100E9000831203170C08F5000130F5070318F60A52
:100EA0007508F3070318F60A7608F4077408031D9B
:100EB000612F7308031D612F831203138A150A1211
:100EC000002E831203130517E001DF01E00B662FEC
:100ED000DF0B662F0513E001DF01E00B6D2FDF0B49
:040EE0006D2F632FE0
:0C0EE40000000000000000000000000002
:100EF00000000000000000000000000000000000F2
:100F000000000000000000000000000000000000E1
:100F100000000000000000000000000000000000D1
:100F200000000000000000000000000000000000C1
:100F300000000000000000000000000000000000B1
:100F400000000000000000000000000000000000A1
:100F50000000000000000000000000000000000091
:100F60000000000000000000000000000000000081
:100F70000000000000000000000000000000000071
:100F80000000000000000000000000000000000061
:100F90000000000000000000000000000000000051
:100FA0000000000000000000000000000000000041
:100FB0000000000000000000000000000000000031
:100FC0000000000000000000000000000000000021
:100FD0000000000000000000000000000000000011
:100FE0000000000000000000000000000000000001
:100FF00000000000000000000000000000000000F1
:101000007F110430831203178D00831603178C138E
:101010000C14831203170C0883120313DF00DF0A7A
:101020007F131930DA000130FD00E1011030FB00C0
:1010300081207F1908000230FD00E10AFB0A8120AF
:101040007F1908000430FD00E10AFB0A81207F19A6
:1010500008000830FD00E10AFB0A81207F19080022
:101060001030FD00E10AFB0A81207F1908002030C2
:10107000FD00E10AFB0A81207F1908004030FD00D5
:10108000E10AFB0A81207F1908008030FD00E10A97
:10109000FB0A81207F1908001830DA000130FD00BA
:1010A0000C30E1000830FB0081207F19080002307D
:1010B000FD000A30E100FB0A81207F19080004309E
:1010C000FD000830E100FB0A81207F19080008308C
:1010D000FD000930E100FB0A81207F190800103073
:1010E000FD000B30E100FB0A81207F190800203051
:1010F000FD000D30E100FB0A81207F1908007F16FA
:101100000800BB26F0307705031D472A0310610D48
:10111000F300730D81389F004D229F149F188E2875
:101120001E08F300831603131E0883120313F40032
:101130001F107F1AAE28B030610761078400831347
:101140007308F5008000840A7408F6008000F30C30
:10115000F40CF30CF40C0310F40C9B29CD30610754
:101160006107840083130008E30084030008E200A1
:101170001C3084020008F500840A0008F6005F08AD
:10118000013C0319E3285F08023C0319E3287508B2
:10119000033C031DD6287308033C031DD62874089E
:1011A00076020318E3280230DF00E3287508031DE8
:1011B000E3287308031DE328760874020318E32864
:1011C0000230DF00E32884035F08E0007308E003D7
:1011D000031902290007E003031902290007000789
:1011E000E003031902290007000700070007E003D6
:1011F000031902290007000700070007000700077E
:1012000000070007F300840A5F08E0007408E003A9
:101210000319402900070318F30AE00303194029C2
:1012200000070318F30A00070318F30AE003031981
:10123000402900070318F30A00070318F30A000700
:101240000318F30A00070318F30AE00303194029FF
:1012500000070318F30A00070318F30A000703182E
:10126000F30A00070318F30A00070318F30A00073C
:101270000318F30A00070318F30A00070318F30A18
:10128000F4005F08E000E00303195B290310F30C8E
:10129000F40CE00303195B290310F30CF40CE003D6
:1012A00003195B290310F30CF40CE00303195B2909
:1012B0000310F30CF40C74088000F6008403730828
:1012C0008000F500F30CF40CF30CF40C0310F40C98
:1012D000741F6E290318F40AF41BF403233061070A
:1012E00084000008D60074020319212A7408031927
:1012F0009B297F3C03199B29000874020318872946
:101300007508E2027608E302031CE2038F296208F3
:101310007502E20063087602031CE203E300E208C0
:10132000031D9B29831603132E08831203136302E4
:10133000031C212A9B29CC306107610784007508B2
:101340008000840A760880002330610784007408D6
:101350008000FE307705031DCD295A08063E840023
:1013600083177D0800050319BC297D09800590308D
:10137000D500D701B02658275A0884007D080005FB
:101380000319472A063084077D0880047408D600B4
:101390007A08D70077182E27452AFC307705031DD9
:1013A000DA29A030D5002E277908D600771C452AE7
:1013B0002627452AFA307705031DE729B030D500E6
:1013C0002E277908D600771C452A2627452AF9308A
:1013D0007705031DEF29C030D5002627452AF830B0
:1013E0007705031DF729D030D5002627452AF73089
:1013F0007705031D002AE030D5002E27D601452AA7
:101400000A307702031D0B2A740883160313AF00FA
:1014100083120313472A0B307702031D162A740820
:1014200083120317A30083120313472A0C30770299
:10143000031D472A740883120317A40083120313A1
:10144000472AFE307705031D472A9030D5005A08F9
:10145000840083177D08000503193B2A06308407A2
:101460007D080005031D472A7D0880047A08D700FF
:1014700077182E27452A063084077D0800050319B2
:10148000472A7D098005D701452AB02658278A15A5
:101490000A1600208A150A12080000000000000049
:0C14A00000000000000000000000080038
:0414AC0000340034D4
:1014B000000000000000000000000000000000002C
:1014C0007F11FB010808F300F6002006F400730901
:1014D0007405831603172806A800F500D0227F198B
:1014E0000800FB017608F3002006F4002008F50050
:1014F0003130E1001A30DA000F247608A0000830FD
:10150000FB000608F300F6002106F40073097405D9
:10151000831603172906A900F500D0227F190800B9
:101520000830FB007608F3002106F4002108F500DE
:101530003530E1001B30DA000F247608A1001030AE
:10154000FB000508F4000F39F300F41A73160908BC
:10155000F400F40DF40DF40DF40DF40D7408E039FD
:10156000F3047308F60022087306F4007309740587
:10157000831603172A06AA00F500D0227F19080057
:101580001030FB007608F3002206F4002208F50074
:101590003930E1001C30DA000F247608A200080080
:1015A000831203130830DF00F40C031C032C7F1399
:1015B000F30C031CDC2A7F17FC010430E000BB267F
:1015C000771F042C3C307705031DE92A8030D500B5
:1015D000EF2B38307705031DF02A9030D500EF2B24
:1015E00034307705031DF72AA030D500EF2B3030BB
:1015F0007705031DFE2AB030D500EF2B2C30770580
:10160000031D0C2BC030D500F71CEF2B7908D6003A
:10161000771826275027F72B2A307705031D132B21
:10162000D030D500EF2B28307705031D202BB030AC
:10163000D50003172308751824080313D700F32BCC
:1016400024307705031D272BE030D500EF2B5C30CD
:101650007702031D332BF030D5007908D6007A08C5
:10166000D7005827F92B64307702031D3C2BFF1756
:10167000FA30D800D627F92B65307702031D452BA9
:10168000FF13FC30D800D627F92B66307702031DF4
:101690004C2BFF1B402B372B67307702031D542B3D
:1016A000F830D800D627F92BE20108307902031868
:1016B000E20A103079020318E20A0130FD007908CD
:1016C00007390319682BE3000310FD0DE30B642BAE
:1016D00068307702031D732B17306207840083176D
:1016E0007D088004F92B69307702031D7E2B1730AB
:1016F0006207840083177D098005F92B6A30770221
:10170000031D892B1A306207840083177D0880042B
:10171000F92B6B307702031D942B1A30620784007B
:1017200083177D098005F92B7E307702031D9C2BE2
:10173000FF30D800D627F92B70307702031DAE2B6F
:1017400079081C3C031CF92B4B270008E1007A08A0
:10175000E107E11BF92B61088000F92B713077025A
:10176000031DC02B79081C3C031CF92B4B270008D8
:10177000E1007A08E102E11BF92B61088000F92BF6
:1017800074307702031DCC2B79081C3C031CF92B09
:101790004B277A088000F92B76307702031DEE2B59
:1017A00079081C3C031CF92B4B270130FD00073046
:1017B0007A050319E02BE2000310FD0DE20BDC2B90
:1017C000FA19EB2B7A1EE82B7D0800050319EB2B89
:1017D0007D098005F92B7D088004F92B042C7A08FB
:1017E000D700F7182E277908D60077182627B026B5
:1017F00058278A150A1600208A150A127F19080030
:10180000FC0AE00BDF2AF30C18307B02031C0A2CC5
:101810001830FB02F50CFB0ADF0BD42A080001305C
:10182000FD007F138313FC010430DF00BB26F03082
:101830007705103C031DD22C610884008313000837
:10184000D600033074050319AB2C73090339031D4B
:10185000AB2C0E307705031D3C2C5A08063E840045
:1018600083177D08800503193C2C7D098005903085
:10187000D500D701B02658276108840083137F3034
:1018800000020319452C751C800A800803194A2C94
:10189000F51C80030E307705031D672C5A08840061
:1018A00083177D0800050319D22C063084077D08B4
:1018B00080046108840083130008D6007A08D700EA
:1018C00077182E279030D500B0265827D22C6108E3
:1018D000840083130A307705031D782CB030D500BF
:1018E000B0267908D600771826272E275827D22C1D
:1018F00009307705031D7F2CC030D500A72C083098
:101900007705031D862CD030D500A72C1A3077021E
:10191000031D912C000883160313AF0083120313D9
:10192000D22C1B307702031D9C2C00088312031756
:10193000A30083120313D22C1C307702031DD22C78
:10194000000883120317A40083120313D22CB026BD
:1019500026275827D22CEE307705031DD22C903045
:10196000D5005A08840083177D0800050319C72C89
:10197000063084077D080005031DD22C7D088004F5
:101980007A08D70077182E27B0265827D22C063091
:1019900084077D0800050319D22C7D098005D70135
:1019A000B02658270310FD0D0310FD0DF30CF30CAA
:1019B000F40CF40CF50CF50CFB0AFB0AE10ADF0B46
:0419C000162C0800D9
:0C19C40000000000000000000000000017
:1019D0000000000000000000000000000000000007
:1019E00000000000000000000000000000000000F7
:1019F00000000000000000000000000000000000E7
:101A00007F117F13FC01831603132B08831203132A
:101A1000031D192DFB010830DF000130FD00883067
:101A2000DA0054257F1908000310FD0DFB0ADF0BB7
:101A3000112D0830DF00FB000130FD008630DA0098
:101A400054257F1908000310FD0DFB0ADF0B202D24
:101A50000330DF000130FD008530DA0012307B02F8
:101A6000031D342DFF1A372D54257F19080003104C
:101A7000FD0DFB0ADF0B2E2DFB0A2030FD0085300B
:101A8000DA0054257F190800FB0A0330DF0001301B
:101A9000FD008930DA0054257F1908000310FD0D80
:101AA000FB0ADF0B4B2D0800BB262C307702031CF2
:101AB000E92D77083F3C031CE92D83135A08840065
:101AC0007D098005F7186C2D7718692D0808F3003B
:101AD000772D0608F300772D0508F4000F39F30081
:101AE000F41A7316090EF400740DE039F3047D083E
:101AF000800416307A07831203178D0083160317AC
:101B00008C130C14831203170C0883120313F304B1
:101B10007308F40083133D307B07840000087306CC
:101B2000F50073088000831790307B0784007309E9
:101B3000750580060008F6007708333C031CAA2DC3
:101B40009030D500831603132F0883120313E2008D
:101B5000E301BF2D77083B3C031CBD2DB030D50001
:101B600083120317230883120313E200831203175F
:101B7000240883120313E300BF2DC030D500B02624
:101B80007908EA000830E000751CDC2D771DD42DA3
:101B9000741CD12D77093C390319DC2D6308D7005B
:101BA000D92D6208D700D92D7418DC2D761CD12DC3
:101BB000CA2D6A08D60058278A150A1600208A15E9
:101BC0000A127F190800F40CF50CF60CEA0AE00B77
:0E1BD000C42D8A150A1600208A150A12080074
:021BDE00000005
:101BE00000000000000000000000000000000000F5
:101BF00000000000000000000000000000000000E5
:101C00008A110A1600268A150A128A150A16002059
:101C10008A150A128A150A16FF1C00238A150A1251
:101C20008A150A1600208A150A12FF1C00208A1540
:101C30000A1600208A150A12FF1C60228A150A164D
:0C1C400000208A150A12FF1C0025052E4A
:041C4C000000000094
:101C50000000000000000000000000000000000084
:101C60000000000000000000000000000000000074
:101C70000000000000000000000000000000000064
:101C80008C1A702E0B19522E0C18552E8C185E2E95
:101C9000492E5B088A0071088400720E8300F00EE2
:101CA000700E09008B120B11492E831603130C10B2
:101CB000831203130C1040308500492E8C108316BC
:101CC000AD0B6E2E0830AD008312DD01681C6E2E48
:101CD0000C1E682EFE3099000000492E8312492EFA
:101CE0008C1208306702031D762E812E8317283050
:101CF00066078400E60A0730E605E70A1A0880004E
:0A1D0000492E8501812E1A08492E94
:061D0A00000000000000D3
:101D100000000000000000000000000000000000C3
:101D200000000000000000000000000000000000B3
:101D300000000000000000000000000000000000A3
:101D40000000000000000000000000000000000093
:101D50000000000000000000000000000000000083
:101D6000F8080319B72E78030F39D50408000709BE
:101D70000F39D5040800831203177C08033C0319AC
:101D8000D72E7C08023C0319D22E7C08013C031993
:101D9000CD2E1C308F008D01DB2E1C308F00C0300B
:101DA0008D00DB2E1D308F0080308D00DB2E1E302D
:101DB0008F0040308D007B088D0703188F0A7B0849
:101DC0008D0703188F0A7B088D0703188F0A7B087D
:101DD0008D0703188F0A7F1FF12E60308D070318BF
:101DE0008F0A831603178C170C140000000083124F
:101DF00003170C08F700F713831203178D0A8316D5
:101E000003170C1400000000831203170C08F800DD
:101E1000F813831203178D0A831603170C1400009E
:101E20000000831203170C08F900F913831203173B
:101E30008D0A831603170C14000000008312031789
:101E40000C08FA00FA138312031308007908203EE5
:101E5000840083130008D600D61308007A08203EB9
:101E6000840083130008D700D713080008307B02D2
:101E700003183C2F23300800253E831203178D00E2
:101E8000831603178C130C14831203170C08831288
:101E90000313233E08007908203E840083130800C2
:101EA0007A08203E840083130008D607D613080062
:101EB00056087F39D60057087F39D700F0305502D1
:101EC0000319B12F5D08550203196A2F5508DD006B
:101ED000D800D6275508F039903C0319892F5508AA
:101EE000F039803C0319892F5508F039A03C0319BB
:101EF000892F5508F039B03C0319862F5508F03961
:101F0000C03C031DA02FE81DA02F952F681DA02FFA
:101F1000952F681E932F6908840083130008D60745
:101F20004030D602D613E81CA02F5608803E031777
:101F30008D0083168C130C1483120C080313D60027
:101F40005608D800D6275508F039C03C0319D02FC1
:101F50005508F039D03C0319D02F5708D800D627A0
:101F6000D02FDD015508D800D627560803178D005D
:101F70001F308F0003135708E000031783168C17D8
:101F80000C140000000083120C080313D800D6279D
:101F900003178D0A0313E00BBD2FF730D800D627A7
:101FA0008A150A1600208A150A12080008308316BE
:101FB000AD00831200000C1EDB2F580899000000B2
:101FC00083160C1083128F018E010C10850183166D
:061FD0000C14831208004E
:0A1FD6000000000000000000000001
:101FE00000000000000000000000000000000000F1
:101FF00000000000000000000000000000000000E1
:102000005C08F03C031D472BFF1C472BDC017F10B5
:102010008B138B1B0828590803193028D90303197F
:102020003F2AD9030319AA29D9030319B329D903CC
:102030000319BC29D9030319C529D9030319CE29CA
:10204000D9030319EE29D9030319F429D903031974
:10205000FD29D9030319062AD90303190F2A472B8F
:10206000DD01E201E3018316031330080319472B56
:10207000F400013C031970283008023C0319E128E0
:102080003008033C0319EF283008043C0319FD28ED
:102090003008053C03190B293008073C031919299E
:1020A0003008083C031946293008093C0319542913
:1020B00030080A3C0319622930080B3C03197029C7
:1020C00030087D3C03197E2930087F3C03196928BC
:1020D000472B83120313FF30E2003F30E3007B28DD
:1020E000831603133108033C031C472B310883126A
:1020F0000313FC009328631C812863100030FC004C
:102100009328E31C8728E3100130FC009328631D0B
:102110008D2863110230FC009328E31DDE28E311B3
:102120000330FC0093284C230130D8008A150A1292
:10213000D6277C08D8008A150A12D6271830E00066
:10214000FB017F138A150A12BB267B08D8008A156B
:102150000A12D6270030D800D6277708D800D6270D
:102160007808D800D6277908D800D6277A08D8006A
:10217000D6277F178A150A12BB267B08D8008A1536
:102180000A12D6270130D800D6277708D800D627DC
:102190007808D800D6277908D800D6277A08D8003A
:1021A000D6278A110A16FB0AE00BA128F730D800BF
:1021B0008A150A12D6278A110A168128621CEC2871
:1021C00062100230F3000630831203178D00831271
:1021D00003130130E0008A29E21CFA28E2100330E0
:1021E000F3000730831203178D00831203130230AC
:1021F000E0008A29621D082962110430F3000A30C8
:10220000831203178D00831203130C30E0008A2918
:10221000E21D1629E2110530F30080308312031706
:102220008D00831203138030E0008A29621E432947
:102230006212831203134C230730D8008A150A1246
:10224000D6278030E000831203178D011F308F00E6
:10225000831603178C170C14000000008312031759
:102260000C088D0A83120313D8008A150A12D62788
:102270008A110A16E00B2829F730D8008A150A12AD
:10228000D6278A110A16E21E5129E2120830F300FD
:102290000330831203178D00831203130330E00011
:1022A0008A29621F5F2962130930F3000930831203
:1022B00003178D00831203130130E0008A29631E87
:1022C0006D2963120A30F3007F30831203178D00EB
:1022D000831203130130E0008A29E31E7B29E312F5
:1022E0000B30F3007E30831203178D00831203132B
:1022F0000130E0008A29E21F8929E2137D30F300D2
:102300000030831203178D00831203130130E000A5
:102310008A29402B4C237308D8008A150A12D62725
:10232000831603178C130C14831203170C088D0AE1
:1023300083120313D8008A150A12D6278A110A16A7
:10234000E00B9029F730D8008A150A12D6278A1197
:102350000A16EC288312031706308D00831203132C
:102360000130E000182A8312031707308D00831212
:1023700003130230E000182A831203170A308D007D
:10238000831203130C30E000182A831203178030E5
:102390008D00831203138030E000182A8312031784
:1023A00080308D008C01831203138030E00083168F
:1023B00003178C130C1555308D00AA308D008C142A
:1023C000831203130D1EE2290D12831203178D0AC7
:1023D0008C0A83120313E00BD729CF2A8312031729
:1023E0001F308F008D01C32A8312031703308D0025
:1023F000831203130330E000182A831203170930F5
:102400008D00831203130130E000182A8312031792
:102410007F308D00831203130130E000182A8312ED
:1024200003177E308D00831203130130E000182A59
:10243000F301B030840083138312031700088C006B
:102440008C13831603178C130C1555308D00AA308E
:102450008D008C14831203130D1E2C2A0D1283126F
:1024600003178D0A840A83120313F30A731F3C2A8D
:10247000F301303084008317E00B1C2ACF2A83122B
:102480000317100883120313FC001830DF00FB0150
:102490007F13EC22FB0ADF0B492A1830DF00FB0117
:1024A0007F17EC22FB0ADF0B512A831203179003DC
:1024B0000319AF2A90030319B62A90030319BD2A02
:1024C000831203130830DF00FB01B0307B077B076A
:1024D0007B077B0784008313001B772AD4225030AC
:1024E0007B077B077B077B0784008317E022FB0ABF
:1024F000DF0B652A0830DF00FB01D0307B077B074C
:102500007B077B0784008313001B8F2AD422B03003
:102510007B077B077B077B0784008317E022FB0A8E
:10252000DF0B7D2A0830DF00FB01831730307B078B
:102530007B077B077B078400001BA62AD422D030B0
:102540007B077B077B077B078400E022FB0ADF0B0E
:10255000962A831203171C308F008D01C32A831221
:1025600003171C308F00C0308D00C32A831203175D
:102570001D308F0080308D00C32A831203171E3058
:102580008F0040308D00B03084008313252330301D
:10259000840083172523B03084002523CF2A83129B
:1025A000031701308500D32A0008F300840A0008CD
:1025B000F400840A0008F500840A0008F600080008
:1025C00073088000840A74088000840A75088000FB
:1025D000840A7608800008007F1BF32A7B080F3CE2
:1025E0000318092BFD2A7B08073C0318032B8317CC
:1025F00008307B02F600B0300D2B831710307B02C1
:10260000F60030300D2B831708307B07F600303092
:102610000D2B83137B08F600B0307607760776071C
:1026200076078400801F08008A150A12BB268A11CB
:102630000A1677088000840A78088000840A7908DE
:102640008000840A7A08800008004030F6008E017D
:1026500000088C008C13831603178C170C1555304B
:102660008D00AA308D008C14000000000C11831224
:1026700003178D0A03198F0A840AF60B282B08000A
:10268000831203131A081A088C12181218168312D0
:1026900003138A150A16BF28F030D8008A150A12CB
:1026A000D6270030D800D6270130D800D6275D3095
:1026B000D800D6270430D800D6278A110A16080079
:1026C000000000000000000000000000000000000A
:1026D00000000000000000000000000000000000FA
:1026E00000000000000000000000000000000000EA
:1026F00000000000000000000000000000000000DA
:102C00000030FF00E8008316073081008312053092
:102C100090007B30920085010030860000308700F4
:102C2000003088000830890083162F308500FF307F
:102C30008600FF308700FF308800FF308900831254
:102C4000FC011030FB000830E000FE30FD008B2757
:102C50000314FD0DFB0AE00B272E0830FB00EF30BC
:102C6000FD009B27FB0AFB30FD009B27FB0AFE3083
:102C7000FD009B27FB0AFD30FD009B27FB0AF73078
:102C8000FD009B27FB0ADF30FD009B278316803069
:102C90009F000530831203178D0083168C130C14CC
:102CA00083120C080319592E831603139F161F163F
:102CB000FF167F30831203178D0083160C148312C6
:102CC0000C0803130739F3000310730DE8047E307A
:102CD00003178D0083160C1483120C080313F300E2
:102CE000731B762E7308203EE90068161130E00051
:102CF000831320308400FF308000840AE00B7C2E98
:102D00001830E00083133D308400FF308000840AD7
:102D1000E00B862E063003178D0083168C130C14DF
:102D200083120C0883160313AF00073083120317B6
:102D30008D0083160C1483120C08A3008D0A8316D1
:102D40000C1483120C08A4000313FB017F130C3036
:102D5000E000313084000A30F300031773088D005F
:102D600083168C130C1483120C08800003138A152D
:102D70000A12BB268A110A161A307702031DC52EC5
:102D800000088316AF008312D62E1B307702031D76
:102D9000CE2E00080317A3000313D62E1C30770293
:102DA000031DD62E00080317A4000313FB0AFB0A19
:102DB000840AF30AE00BAD2E033003178D0083164F
:102DC0008C130C1483120C0883160313AE008312A9
:102DD0001830E000831790308400FF308000840AB0
:102DE000E00BEE2E83160317FF30A800A900AA00FF
:102DF000831297019D0198019E0199019F019A01FB
:102E0000A0019B01A1019C01A2010313E501E601C0
:102E1000E701DC01DE01D901DD018316AC010F30D1
:102E2000A9008030AA00AB018312FB010830E0004A
:102E30000130FD008A150A12BB268A110A1677088E
:102E40002B3C031D282F83167D08AB0488068312B4
:102E50000310FD0DFB0AE00B1A2FF3010830E00010
:102E60000130FD008A150A12BB268A110A1677085E
:102E70002A3C031D492F83167D089506AC04831256
:102E8000F91C462F7D087918F304492F7D08791C19
:102E9000F3040310FD0DFB0AE00B322F73088600CC
:102EA000FF30DF00FF30E000000000000000000005
:102EB0000000000000000000000000000000000012
:102EC0000000000000000000000000000000000002
:102ED000E00B542FDF0B522F40308500C0308B00A9
:102EE00083168C160F30990026309800831290308C
:102EF000980083160830AD008C1483121215093027
:102F000003178D0083168C130C1483120C08031303
:102F1000031D681408008A150A12BB268A110A16B6
:102F2000F0307705031908007D088316031788051C
:102F30008312031308008A150A12BB268A110A1687
:102F4000F0307705031908007D08831603178905FB
:062F5000831203130800C8
:0A2F56000000000000000000000071
:102F60000000000000000000000000000000000061
:102F70000000000000000000000000000000000051
:102F80000000000000000000000000000000000041
:102F90000000000000000000000000000000000031
:102FA0000000000000000000000000000000000021
:102FB0000000000000000000000000000000000011
:102FC0000000000000000000000000000000000001
:102FD00000000000000000000000000000000000F1
:102FE00000000000000000000000000000000000E1
:102FF00000000000000000000000000000000000D1
:103000006708031908002830650784008317000843
:10301000E400E50A0730E505E41FFD285D086402C9
:10302000031D17287F14DE016408DC0032296408C0
:10303000F039F03C031D49286408FF3C03192A2994
:103040006408FE3C031932296408FD3C03192A294F
:103050006408FC3C03194F286408FB3C03194F2803
:103060006408FA3C03194F286408F93C03192A291B
:103070006408F83C03194F286408F03C03195028F1
:103080006408F73C03194628DC0132298A110A1624
:1030900000286408DC00DD007F14DE012A292A29CB
:1030A0006408DC00D9017F14FF10DE013229FF1C07
:1030B000C528590BB8285E0803197C285E08013C16
:1030C000031988285E08023C031994285E08033C13
:1030D0000319A0285E08043C0319A8285E08053CD3
:1030E0000319B02864088312031796008312031390
:1030F0005D210130DE0032296408033C031CBF2837
:10310000640883120317900083120313DE0A322926
:103110006408173C031CBF2864088312031791003E
:1031200083120313DE0A32296408013C031CBF2802
:10313000640883120317920083120313DE0A3229F4
:10314000640883120317930083120313DE0A3229E3
:10315000640883120317940083120313DE0A3229D2
:10316000640883120317950083120313DE0A3229C1
:10317000DE1BBF285E08FE003A21DE0A32298B17CB
:10318000DC01D9017F10FF1032295E08031DCE2813
:10319000E4080319FB28DC017F103229FE00FE0B36
:1031A000D828013064020319FB28DC017F10322982
:1031B000FE0BE1285D3064020319FB28DC017F105F
:1031C0003229FE0BEA28043064020319FB28DC01D3
:1031D0007F103229FE0BF828FF147F15DE018D21A8
:1031E0007F126408D90059087F3C031CBF2832298C
:1031F000DC017F103229DE0A3229DC08031932296A
:10320000F0305C0203195728DE08031D11295C0801
:103210005D02031911295C08DD00D8008A150A1225
:10322000D6276408D8008A150A12D6278A150A16E6
:10323000DE0ADE1827295C08F039FE00C03C0319BD
:1032400027297E08D03C031927297F1432297F10B3
:10325000DE0132296408D8008A150A12D6278A1599
:103260000A163229E70B03287F1C08006708031D94
:10327000032834297E083F3C031856297E087F3CEA
:1032800003184E297E08BF3C031C080080307E02D4
:10329000B03E8400831764088000080040307E023E
:1032A000303E840083176408800008007E08B03E2A
:1032B0008400831364088000080083120317183009
:1032C0001218910711080F3C0318762911081F3CAA
:1032D0000318702920301102FE008317B0307A29BC
:1032E00010301102FE00831730307A291108FE00D9
:1032F0008313B0307E077E077E077E0784001308A5
:103300008000840A14088000840A15088000840A5A
:1033100016088000831203130800B0308400831362
:103320004030FE00FF308000840AFE0B93293030CD
:10333000840083174030FE00FF308000840AFE0BBB
:103340009D29B03084004030FE00FF308000840AA8
:06335000FE0BA629080097
:0A335600000000000000000000006D
:10336000000000000000000000000000000000005D
:10337000000000000000000000000000000000004D
:10338000000000000000000000000000000000003D
:10360000831603132C08031D072B83120800A90A35
:103610000310AA0D031C0F2B2A140830A9002C0834
:103620002A050319072B2908FB008A150A12BB2655
:103630008A150A167A08203E840083130008F300D6
:10364000F50079081C390319682B103C03195E2B0F
:10365000791A4B2BF5016430F302031C352BF50A64
:10366000F302031C352BF50A372B6430F307F91DE1
:10367000452BF5010A30F302031C402BF50A3B2BC6
:10368000791D452B73080A3EF5001B308A0075082A
:103690007723F500682BF91D592B731F522B4030EF
:1036A000F302392BF309730A3F39F3000319731737
:1036B000392B4030731B0030F500682B0130F500CA
:1036C0001030F302031C662BF50D612B7508682B77
:1036D0008316FF3086007508F91C7509831288006F
:1036E00083162A09860083120E308A00080082079A
:1036F0003F3406345B344F3466346D347D340734E4
:043700007F346F346F
:0C370400000000000000000000000000B9
:1037100000000000000000000000000000000000A9
:103720000000000000000000000000000000000099
:103730000000000000000000000000000000000089
:103740000000000000000000000000000000000079
:103750000000000000000000000000000000000069
:103760000000000000000000000000000000000059
:103770000000000000000000000000000000000049
:103780000000000000000000000000000000000039
:103790000000000000000000000000000000000029
:1037A0000000000000000000000000000000000019
:1037B0000000000000000000000000000000000009
:1037C00000000000000000000000000000000000F9
:1037D00000000000000000000000000000000000E9
:1037E00000000000000000000000000000000000D9
:1037F00000000000000000000000000000000000C9
:10380000440000003C007F00440000003D007F00B9
:10381000440000003E007F00440000003F007F00A5
:103820004400000040007F004400000041007F0091
:103830004400000042007F004400000043007F007D
:103840004400000044007F004400000045007F0069
:103850004400000046007F004400000047007F0055
:103860004400000048007F004400000049007F0041
:10387000440000004A007F00440000004B007F002D
:10388000440000004C007F00440000004D007F0019
:10389000440000004E007F00440000004F007F0005
:1038A0004400000050007F004400000051007F00F1
:1038B0004400000052007F004400000053007F00DD
:1038C000440000003C000000440000003D000000F7
:1038D000440000003E000000440000003F000000E3
:1038E00044000000400000004400000041000000CF
:1038F00044000000420000004400000043000000BB
:1039000044000000440000004400000045000000A6
:103910004400000046000000440000004700000092
:10392000440000004800000044000000490000007E
:10393000440000004A000000440000004B0000006A
:10394000440000004C000000440000004D00000056
:10395000440000004E000000440000004F00000042
:10396000440000005000000044000000510000002E
:10397000440000005200000044000000530000001A
:103980007F000000000000007F0000000000000039
:103990007F000000000000007F0000000000000029
:1039A0007F000000000000007F0000000000000019
:1039B0007F000000000000007F0000000000000009
:1039C0007F000000000000007F00000000000000F9
:1039D0007F000000000000007F00000000000000E9
:1039E0007F000000000000007F00000000000000D9
:1039F0007F000000000000007F00000000000000C9
:103A00007F000000000000007F00000000000000B8
:103A10007F000000000000007F00000000000000A8
:103A20007F000000000000007F0000000000000098
:103A30007F000000000000007F0000000000000088
:103A40007F000000000000007F0000000000000078
:103A50007F000000000000007F0000000000000068
:103A60007F000000000000007F0000000000000058
:103A70007F000000000000007F0000000000000048
:103A80007F000000000000007F0000000000000038
:103A90007F000000000000007F0000000000000028
:103AA0007F000000000000007F0000000000000018
:103AB0007F000000000000007F0000000000000008
:103AC0007F000000000000007F00000000000000F8
:103AD0007F000000000000007F00000000000000E8
:103AE0007F000000000000007F00000000000000D8
:103AF0007F000000000000007F00000000000000C8
:103B00007F000000000000007F00000000000000B7
:103B10007F000000000000007F00000000000000A7
:103B20007F000000000000007F0000000000000097
:103B30007F000000000000007F0000000000000087
:103B40007F000000000000007F0000000000000077
:103B50007F000000000000007F0000000000000067
:103B60007F000000000000007F0000000000000057
:103B70007F000000000000007F0000000000000047
:103B80007F000000000000007F0000000000000037
:103B90007F000000000000007F0000000000000027
:103BA0007F000000000000007F0000000000000017
:103BB0007F000000000000007F0000000000000007
:103BC0007F000000000000007F00000000000000F7
:103BD0007F000000000000007F00000000000000E7
:103BE0007F000000000000007F00000000000000D7
:103BF0007F000000000000007F00000000000000C7
:103C00007F000000000000007F00000000000000B6
:103C10007F000000000000007F00000000000000A6
:103C20007F000000000000007F0000000000000096
:103C30007F000000000000007F0000000000000086
:103C40007F000000000000007F0000000000000076
:103C50007F000000000000007F0000000000000066
:103C60007F000000000000007F0000000000000056
:103C70007F000000000000007F0000000000000046
:103C80007F000000000000007F0000000000000036
:103C90007F000000000000007F0000000000000026
:103CA0007F000000000000007F0000000000000016
:103CB0007F000000000000007F0000000000000006
:103CC0007F000000000000007F00000000000000F6
:103CD0007F000000000000007F00000000000000E6
:103CE0007F000000000000007F00000000000000D6
:103CF0007F000000000000007F00000000000000C6
:103D00007F000000000000007F00000000000000B5
:103D10007F000000000000007F00000000000000A5
:103D20007F000000000000007F0000000000000095
:103D30007F000000000000007F0000000000000085
:103D40007F000000000000007F0000000000000075
:103D50007F000000000000007F0000000000000065
:103D60007F000000000000007F0000000000000055
:103D70007F000000000000007F0000000000000045
:103D80007F000000000000007F0000000000000035
:103D90007F000000000000007F0000000000000025
:103DA0007F000000000000007F0000000000000015
:103DB0007F000000000000007F0000000000000005
:103DC0007F000000000000007F00000000000000F5
:103DD0007F000000000000007F00000000000000E5
:103DE0007F000000000000007F00000000000000D5
:103DF0007F000000000000007F00000000000000C5
:103E00000000010002000300040005000600070096
:103E1000080009000A000B000C000D000E000F0046
:103E200010001100120013001400150016001700F6
:103E3000180019001A001B001C001D001E001F00A6
:103E40002000210022002300240025002600270056
:103E5000280029002A002B002C002D002E002F0006
:103E600030003100320033003400350036003700B6
:103E7000380039003A003B003C003D003E003F0066
:103E80004000410042004300440045004600470016
:103E9000480049004A004B004C004D004E004F00C6
:103EA0005000510052005300540055005600570076
:103EB000580059005A005B005C005D005E005F0026
:103EC00060006100620063006400650066006700D6
:103ED000680069006A006B006C006D006E006F0086
:103EE0007000710072007300740075007600770036
:103EF000780079007A007B007C007D007E007F00E6
:103F000000000000000000000000000000000000B1
:103F100000000000000000000000000000000000A1
:103F20000000000000000000000000000000000091
:103F30000000000000000000000000000000000081
:103F40000000000000000000000000000000000071
:103F50000000000000000000000000000000000061
:103F60000000000000000000000000000000000051
:103F70000000000000000000000000000000000041
:103F80000000000000000000000000000000000031
:103F90000000000000000000000000000000000021
:103FA0000000000000000000000000000000000011
:103FB0000000000000000000000000000000000001
:103FC00000000000000000000000000000000000F1
:103FD00000000000000000000000000000000000E1
:103FE00000000000000000000000000000000000D1
:103FF00000000000000000000000000000000000C1
:02400E00242369
:02401000FF02AD
:104200000400B60007000600040000007F007F00E5
:10421000000000000000000000000000000000009E
:10422000000000000000000000000000000001008D
:10423000030007000F001F003F007F008000C00048
:10424000E000F000F800FC00FE000E000C000A0088
:104250000B000D000F000000000000000100020034
:104260000300040005000600070000000000000035
:10427000000000000000000000000000000000003E
:10428000000000000000000000000000000000002E
:10429000000000000000000000000000000000001E
:1042A000000000000000000000000000000000000E
:1042B00000000000000000000000000000000000FE
:1042C00000000000000000000000000000000000EE
:1042D00000000000000000000000000000000000DE
:1042E00000000000000000000000000000000000CE
:1042F0000000000000000000000000007F0000003F
:104300000000010002000300040005000600070091
:10431000080009000A000B000C000D000E000F0041
:1043200010001100120013001400150016001700F1
:10433000180019001A001B001C001D001E001F00A1
:104340002000210022002300240025002600270051
:10435000280029002A002B002C002D002E002F0001
:1043600030003100320033003400350036003700B1
:10437000380039003A003B003C003D003E003F0061
:104380004000410042004300440045004600470011
:10439000480049004A004B004C004D004E004F00C1
:1043A0005000510052005300540055005600570071
:1043B000580059005A005B005C005D005E005F0021
:1043C00060006100620063006400650066006700D1
:1043D000680069006A006B006C006D006E006F0081
:1043E0007000710072007300740075007600770031
:1043F000780079007A007B007C007D007E007F00E1
:00000001FF
